S0150000656C65635F766F745F6D6163682E73726563C6
S11300000C942A000C9447000C9447000C9447006D
S11300100C9447000C9447000C9447000C94470040
S11300200C9447000C9447000C9447000C94470030
S11300300C9447000C9447000C9447000C94470020
S11300400C9447000C9447000C9447000C94470010
S11300500C94470011241FBECFE5D8E0DEBFCDBF0E
S113006010E0A0E6B0E0E0E5FCE002C005900D92EF
S1130070A037B107D9F710E0A0E7B0E001C01D92A6
S1130080A037B107E1F70E949E030C9426060C9456
S11300900000FC018081882341F0319680E090E0EB
S11300A0019621912223E1F702C080E090E00197BC
S11300B00895843409F471C0853448F4823499F184
S11300C0833408F04DC0813409F083C00FC08236F8
S11300D051F1833620F4813609F07BC007C08336A2
S11300E009F43EC0843609F074C057C0413069F445
S11300F02AB381E090E0AC0102C0440F551F6A9519
S1130100E2F7BA01622B6ABB08952AB381E090E05A
S1130110AC0102C0440F551F6A95E2F7BA0160951D
S113012062236ABB0895413069F427B381E090E00B
S1130130AC0102C0440F551F6A95E2F7BA01622B65
S113014067BB089527B381E090E0AC0102C0440F7F
S1130150551F6A95E2F7BA016095622367BB08955B
S1130160413069F424B381E090E0AC0102C0440F53
S1130170551F6A95E2F7BA01622B64BB089524B354
S113018081E090E0AC0102C0440F551F6A95E2F78C
S1130190BA016095622364BB0895413069F421B3C8
S11301A081E090E0AC0102C0440F551F6A95E2F76C
S11301B0BA01622B61BB089521B381E090E0AC01E8
S11301C002C0440F551F6A95E2F7BA016095622395
S11301D061BB0895843409F471C0853448F48234D1
S11301E099F1833408F04DC0813409F083C00FC005
S11301F0823651F1833620F4813609F07BC007C082
S1130200833609F43EC0843609F074C057C04130C7
S113021069F42BB381E090E0AC0102C0440F551F98
S11302206A95E2F7BA01622B6BBB08952BB381E0A8
S113023090E0AC0102C0440F551F6A95E2F7BA0181
S1130240609562236BBB0895413069F428B381E063
S113025090E0AC0102C0440F551F6A95E2F7BA0161
S1130260622B68BB089528B381E090E0AC0102C022
S1130270440F551F6A95E2F7BA016095622368BB83
S11302800895413069F425B381E090E0AC0102C0E7
S1130290440F551F6A95E2F7BA01622B65BB0895B6
S11302A025B381E090E0AC0102C0440F551F6A956C
S11302B0E2F7BA016095622365BB0895413069F4A1
S11302C022B381E090E0AC0102C0440F551F6A954F
S11302D0E2F7BA01622B62BB089522B381E090E099
S11302E0AC0102C0440F551F6A95E2F7BA0160954C
S11302F0622362BB08958434B1F1853438F48234C6
S1130300E1F0833428F58134C1F50CC08236A9F0BC
S1130310833618F4813689F505C08336C9F08436EE
S113032061F521C029B330E0C90102C095958795D4
S11303306A95E2F7982F917020C026B330E0C90186
S113034002C0959587956A95E2F7982F917015C02C
S113035023B330E0C90102C0959587956A95E2F709
S1130360982F91700AC020B330E0C90102C095955E
S113037087956A95E2F7982F9170892F08958434B0
S113038009F43DC0853440F48234F9F0833450F5E7
S1130390813409F040C00CC08236B9F0833618F4B9
S11303A08136C9F505C08336E9F08436A1F527C046
S11303B02BB381E090E0AC0102C0440F551F6A9555
S11303C0E2F7BA0162276BBB089528B381E090E09D
S11303D0AC0102C0440F551F6A95E2F7BA016227C7
S11303E068BB089525B381E090E0AC0102C0440FDE
S11303F0551F6A95E2F7BA01622765BB089522B3D7
S113040081E090E0AC0102C0440F551F6A95E2F709
S1130410BA01622762BB08958434D9F0853438F474
S1130420823499F0833498F48134A1F40CC0823678
S113043061F0833618F4813669F405C0833639F0E7
S1130440843641F406C06ABB089567BB089564BB53
S1130450089561BB08958434D9F0853438F4823426
S113046099F0833498F48134A1F40CC0823661F09D
S1130470833618F4813669F405C0833639F084363E
S113048041F406C06BBB089568BB089565BB08952D
S113049062BB08958434D9F0853438F4823499F0F9
S11304A0833498F48134A1F40CC0823661F083362D
S11304B018F4813669F405C0833639F0843641F482
S11304C006C089B3089586B3089583B3089580B3AD
S11304D00895843409F1853438F48234A9F08334DE
S11304E0B8F48134E1F40CC0823671F0833618F428
S11304F08136A9F405C0833659F0843681F40CC0E2
S11305008BB380958BBB089588B3809588BB089581
S113051085B3809585BB089582B3809582BB089589
S1130520843409F480C0853448F48234C1F18334BE
S113053008F057C0813409F097C00FC0823679F1B2
S1130540833620F4813609F08FC007C0833609F45E
S113055048C0843609F088C066C0413091F42BB39A
S113056081E090E0AC0102C0440F551F6A95E2F7A8
S1130570BA01822F842B8BBB8AB3609568236ABB34
S113058008952BB381E090E0AC0102C0440F551FE5
S11305906A95E2F7BA01609562236BBB0895413016
S11305A091F428B381E090E0AC0102C0440F551FE0
S11305B06A95E2F7BA01822F842B88BB87B36095D2
S11305C0682367BB089528B381E090E0AC0102C0C2
S11305D0440F551F6A95E2F7BA016095622368BB20
S11305E00895413091F425B381E090E0AC0102C05C
S11305F0440F551F6A95E2F7BA01822F842B85BBFD
S113060084B36095682364BB089525B381E090E0CA
S1130610AC0102C0440F551F6A95E2F7BA01609518
S1130620622365BB0895413091F422B381E090E0E8
S1130630AC0102C0440F551F6A95E2F7BA01822F3C
S1130640842B82BB81B36095682361BB089522B378
S113065081E090E0AC0102C0440F551F6A95E2F7B7
S1130660BA016095622362BB08956F70843451F1BE
S1130670853438F48234C1F08334E8F4813441F5AC
S11306800CC0823689F0833618F4813609F505C02A
S1130690833689F08436E1F415C08BB3807F8BBB3D
S11306A08BB3682B6BBB089588B3807F88BB88B3FA
S11306B0682B68BB089585B3807F85BB85B3682BA1
S11306C065BB089582B3807F82BB82B3682B62BB13
S11306D008956295607F843451F1853438F482340E
S11306E0C1F08334E8F4813441F50CC0823689F0DA
S11306F0833618F4813609F505C0833689F08436CB
S1130700E1F415C08BB38F708BBB8BB3682B6BBBC1
S1130710089588B38F7088BB88B3682B68BB08952D
S113072085B38F7085BB85B3682B65BB089582B391
S11307308F7082BB82B3682B62BB0895CF93DF9323
S113074000D000D000D0CDB7DEB783E660E00E94D1
S11307500C020E9463058CE00E94510500E077249E
S1130760662455244424332422241E82EE24FF24A8
S1130770CC24DD2488249924AA24BB2411E083E614
S113078060E00E947B01813039F48E81882321F45A
S11307900894A11CB11C1E8383E660E00E947B01C7
S11307A0882321F48E81813009F41E8283E6612F2F
S11307B00E947B01813059F4222049F4A114B10430
S11307C029F00894A108B108212E01C0212E83E646
S11307D0612F0E947B01882321F481E0281609F40B
S11307E0222483E662E00E947B01813031F43320CD
S11307F021F40894811C911C312E83E662E00E944E
S11308007B01882321F481E0381609F4332483E63C
S113081063E00E947B01813059F4442049F481143F
S1130820910429F0089481089108412E01C0412EB9
S113083083E663E00E947B01882321F481E048166B
S113084009F4442483E664E00E947B01813031F49E
S1130850552021F40894C11CD11C512E83E664E078
S11308600E947B01882321F481E0581609F4552461
S113087083E665E00E947B01813059F4662049F4E7
S1130880C114D10429F00894C108D108612E01C013
S1130890612E83E665E00E947B01882321F481E0D8
S11308A0681609F4662483E666E00E947B018130C1
S11308B031F4772021F40894E11CF11C712E83E6B5
S11308C066E00E947B01882321F481E0781609F414
S11308D0772483E667E00E947B01813059F400238A
S11308E049F4E114F10429F00894E108F108012F16
S11308F001C0012F83E667E00E947B01882319F47D
S1130900013009F400E0A114B10461F4812F612FD6
S11309100E94DE0580E690E00E94BF0580E30E940D
S1130920AD0511C0CE010196B5010E94F504812FD9
S1130930612F0E94DE0580E690E00E94BF05CE0193
S113094001960E94BF05CE010196B4010E94F504F0
S1130950812F68E00E94DE0584E690E00E94BF05D6
S1130960CE0101960E94BF05C114D10461F482E056
S1130970612F0E94DE0588E690E00E94BF0580E3B7
S11309800E94AD0511C0CE010196B6010E94F50486
S113099082E0612F0E94DE0588E690E00E94BF0598
S11309A0CE0101960E94BF05E114F10461F482E0D6
S11309B068E00E94DE058CE690E00E94BF0580E3BB
S11309C00E94AD05DCCECE010196B7010E94F5046C
S11309D082E068E00E94DE058CE690E00E94BF059C
S11309E0CE0101960E94BF05CACECF92DF92EF924C
S11309F0FF920F931F93CF93DF936C01FB0130970A
S1130A0061F1CB01C0E0D0E02AE030E02196B901E9
S1130A100E94FF05CB010097C9F71C161D06CCF4F4
S1130A2086010C0F1D1F20E030E00F2EFAE0EF2EA0
S1130A30FF24F02DCF01B7010E94FF05E62FF72F09
S1130A40805DD8018E938D012F5F3F4F2C173D079A
S1130A5089F7CC0DDD1D188204C080E3F601808384
S1130A601182DF91CF911F910F91FF90EF90DF9052
S1130A70CF90089582E460E041E00E94EA008FE9AB
S1130A809FE00197F1F700C0000082E460E040E0DD
S1130A900E94EA008FE99FE00197F1F700C000008F
S1130AA00895682F81E40E942B0282E461E040E013
S1130AB00E94EA000E943A058FEC97E00197F1F753
S1130AC000C0000008958FEF91EEA4E081509040A3
S1130AD0A040E1F700C0000081E46FEF0E940C0227
S1130AE082E460E041E00E94590082E462E041E077
S1130AF00E94590082E461E041E00E94590088E3C9
S1130B000E945105AFECB7E01197F1F700C0000067
S1130B108EE00E9451058FEC97E00197F1F700C039
S1130B20000082E00E945105AFE1BEE41197F1F7A5
S1130B3000C0000081E00E9451058FE19EE401970E
S1130B40F1F700C0000086E00E945105AFECB7E069
S1130B501197F1F700C000000895682F81E40E9406
S1130B602B0282E461E041E00E94EA000E943A051F
S1130B708FEC97E00197F1F700C000000895CF9340
S1130B80DF93EC018881882331F021960E94AD0522
S1130B9089918823D9F78FEC97E00197F1F700C08A
S1130BA00000DF91CF91089581E00E9451058FE10B
S1130BB09EE40197F1F700C000000895282F21500A
S1130BC0223070F4662371F0613170F4813019F4CD
S1130BD0962F91580AC0823041F4962F915405C043
S1130BE090E803C090E801C090E8892F0E94510565
S1130BF08FEC97E00197F1F700C00000089597FB90
S1130C00092E07260AD077FD04D00CD006D0002088
S1130C101AF4709561957F4F0895F6F79095819534
S1130C209F4F0895AA1BBB1B51E107C0AA1FBB1FFE
S1130C30A617B70710F0A61BB70B881F991F5A9564
S1130C40A9F780959095BC01CD010895F894FFCF44
S1130C5078313D0078323D0078333D0078343D00F2
S9030000FC
